:204400001F141F42DE052F8317242F8340202F005A247E4F600F5A24C24ECE055E426224B6
:20442000CF0E5F53C24F62245E9263243028E2C3DC05C2433B242B3C5F423824DF42CC0547
:204440003E24C29338240720F2907F003E240320C2933A241824C29338240324D2933A2412
:204460000B24D2933A240524C2433824C2433A240E3CD25338240B3CC2433824C2433A2487
:20448000D2433924043CD2433A24D25338241E1600130F141F421E022F821F242F8339208C
:2044A000E2B3010217209253282482632A24D29333240B24D24333241F4250032F83824F3B
:2044C0005603B24010004603053C1F4250032F83824F5603E2C21D021C3CE2B2010217207E
:2044E0009283282482732A24D29333240B24D24333241F4250032F83824F5603B24010002F
:204500004603053C1F4250032F83824F5603E2C31D02B2402C5A5C010F1600134F14F2B2A9
:204520001C022020F2B010001C021220E2B21C02062032C20343B2402F5A5C01FF3FB1C082
:20454000F00014005C43B0138C55E2C21C02123CB1C0F00014005C43B0139855F2F0EF006F
:204560001C02083CB1C0F00014005C43B0139255F2C21C024B1600134F141F426E032F83EE
:2045800008242F830B20B0138251B2F0EFFF4603053CD2433C24B250008054034B160013A0
:2045A000B29006000E070920924220073624D2433424A2C3000782430C0700138100004497
:2045C000B0139E550C930224B01346500C43B0134852B013A255A293AE030520D2431C2441
:1045E000B280A0159403001332D01000FD3F0013D9
:2045F000B1000600D2933C240620C2433C249253002482630224D293392402208000CC4C14
:20461000D293212402208000C24C5F4260023FF080FF5E421D240E9F78243F4080005FF205
:204630006002C24F1D24B0138251B013D054C2931D243620F140F9000000B14001F002003F
:20465000F14304001C4252241D4254241E4200241F420224B0137A4D824C6024A2936024C7
:204670005420B252522482635424F140F9000000B14001F00200F14304001C4252241D4266
:2046900054241E4200241F420224B0137A4D0C933C24B013A44F824C5224824D5424353C4C
:2046B000F140F9000000B14000F00200F14304001C4252241D4254241E4200241F420224EF
:2046D000B0137A4D824C6024A29360241E20B252522482635424F140F9000000B14000F015
:2046F0000200F14304001C4252241D4254241E4200241F420224B0137A4D0C930624B013A4
:20471000A44F824C5224824D5424F2B0400000023B20D2930F247220F140FC000000B14084
:2047300000F00200F14304001C4252241D4254241E4200241F420224B0137A4D824C6024AD
:20475000A29360241E20B252522482635424F140FC000000B14000F00200F14304001C42D5
:2047700052241D4254241E4200241F420224B0137A4D0C930624B013A44F824C5224824DB5
:204790005424C2430F243A3CC2930F243720F140FC000000B14001F00200F14304001C425D
:2047B00052241D4254241E4200241F420224B0137A4D824C6024A29360241E20B252522444
:2047D00082635424F140FC000000B14001F00200F14304001C4252241D4254241E420024F4
:2047F0001F420224B0137A4D0C930624B013A44F824C5224824D5424D2430F241F4222249F
:204810003F900A0002288000B04C5F060018504F2248BC4C00008E4B0000E64A00003E4AEA
:204830000000EA490000CC490000CA480000784800004A480000B64C00003E402C010F43BD
:204850001E5204241F6206241F920224042807201E920024042CC2430E24B0134455B24052
:20487000090022248000744DC293312422241C4252241D4254241E4200241F420224B0132F
:20489000D4522C931620B2525224826354241C4252241D4254241E4200241F420224B0139D
:2048B000D4522C930620B013A44F824C5224824D5424B24222248000744DD293342402243E
:2048D0008000744DB0136255824C2424B2909F0C24243428F140F400000091422424020024
:2048F000F14304001C4252241D4254241E4200241F420224B0137A4DA29360245420B252FF
:20491000522482635424F140F4000000914224240200F14304001C4252241D4254241E422F
:2049300000241F420224B0137A4D0C933C24B013A44F824C5224824D5424353CD2430D243B
:20495000F140FB000000914224240200F14304001C4252241D4254241E4200241F42022410
:20497000B0137A4DA29360241E20B252522482635424F140FB000000914224240200F14352
:2049900004001C4252241D4254241E4200241F420224B0137A4D0C930624B013A44F824C76
:2049B0005224824D5424D2930E2403203F400700023C3F400900824F2224D43DD2930E2465
:2049D0000424B24009002224CD3DB0135655B24006002224C2430C24C53D3E4080511F43C0
:2049F0001E5208241F620A241F92022404280E201E9200240B2CC2930C240820924200247B
:204A10000824924202240A24D2430C24D2930C2403203F400500083CD2930E2403203F4034
:204A30000700023C3F400900824F22249B3DF2B0100000024D24924200240424924202246B
:204A50000624924200241824924202241A24C2930E240420D2430E24B013D054C293162448
:204A70003720D2431624F140F2000000B14001F00200F14304001C4252241D4254241E4236
:204A900000241F420224B0137A4D824C6024A29360241E20B252522482635424F140F2008E
:204AB0000000B14001F00200F14304001C4252241D4254241E4200241F420224B0137A4D8A
:204AD0000C930624B013A44F824C5224824D5424A2422224473DF2B200024D2492420024FF
:204AF0000424924202240624924200241224924202241424C2930E240420D2430E24B01345
:204B1000D054C29310243720D2431024F140F2000000B14000F00200F14304001C42522426
:204B30001D4254241E4200241F420224B0137A4D824C6024A29360241E20B2525224826351
:204B50005424F140F2000000B14000F00200F14304001C4252241D4254241E4200241F42FF
:204B70000224B0137A4D0C930624B013A44F824C5224824D5424B24003002224F33C3E4281
:204B90000F431E5212241F6214241F92022404283D201E9200243A2CD29310243720C243C5
:204BB0001024F140F2000000B14000F10200F14304001C4252241D4254241E4200241F42E2
:204BD0000224B0137A4D824C6024A29360241E20B252522482635424F140F2000000B140E1
:204BF00000F00200F14304001C4252241D4254241E4200241F420224B0137A4D0C93062472
:204C1000B013A44F824C5224824D54243E420F431E5218241F621A241F92022404283D20A6
:204C30001E9200243A2CD29316243720C2431624F140F2000000B14001F10200F1430400B5
:204C50001C4252241D4254241E4200241F420224B0137A4D824C6024A29360241E20B252B7
:204C7000522482635424F140F2000000B14001F00200F14304001C4252241D4254241E4207
:204C900000241F420224B0137A4D0C930624B013A44F824C5224824D5424A2432224623CFC
:204CB000824322245F3C824322245C3C92432224593CC2432124B013F84E543CC2433924A6
:204CD000B0138655C24C2624D29326240724F290100026244720B0131A51443CD2432124A9
:204CF000F140FA000000B1430200F14304001C4252241D4254241E4200241F420224B013D2
:204D10007A4D824C6024A29360242C20B282522482735424F140FA000000B1430200F143F9
:204D300004001C4252241D4254241E4200241F420224B0137A4D0C931524B28252248273A8
:204D50005424F140FA000000B1430200F14304001C4252241D4254241E4200241F420224BC
:204D7000B0137A4DA100060010013A14B1000400814E0000814F0200C90CCA0D58411C00DC
:204D900057411800B01310535C9302241C43A83C82495624824A5824B2F00F00582432C227
:204DB0000343B24000A54401B24040A54001CF012D005624CE0DAE000100600E5624FD4F74
:204DD00000002D005624CE0DAE000100600E5624FD4F00002D005624CE0DAE000100600EBF
:204DF0005624FD4F00002D005624CE0DAE000100600E5624FD4F00002E005624CF0EAF0044
:204E10000100600F5624CE470000CF01AF001A002D005624CE0DAE000100600E5624FD4F85
:204E300000002D005624CE0DAE000100600E5624FD4F00002E005624CF0EAF000100600F59
:204E50005624CE480000B24000A54001B24010A54401034332D2034382495624824A5824D1
:204E7000B2F00F005824CD014F436F920C2C2E0056247C4E600E56247C9D02242C43303CE8
:204E90005F536F92F42B2F0056247E4F600F56244E9702242C43243CCD01AD001A004F43D0
:204EB0006F930C2C2E0056247C4E600E56247C9D02242C43153C5F536F93F42B2F005624D3
:204ED0007E4F600F56244E9802242C43093CCC09CD0A3C520D63B0136C5592535E240C4368
:204EF000A1000400371610012A14B240805A5C01F2407F004824F2407F0049248F005E24EC
:204F1000F24F4A24F24F4B248C0048247D400900B01308550D143D40DCAB1D83FE230D163B
:204F3000003C394218431A43829A5E242E28CF080F184F5F00184FD9F24F4924F24F4A24B5
:204F5000F24F4B24F24F4C24F24F4D24F24F4E24F24F4F24F24F50248C0048247D40090054
:204F7000B0130855D2933B240320D2933B24FD270D143D403C1F1D83FE230D16003C39528E
:204F900008631A53829A5E24D22FB2402C5A5C01281610011A14B1000600B240805A5C0158
:204FB0003A421943299304283F203A9001443C2CCE090F184E5E00184EDA4F437F922C2C66
:204FD0004D4FED0E3C40FF006C9D24207F9007001D20CC0ACD093C820D73B0134653F14098
:204FF000F8000000B1430200F1430400CC0ACD091E4200241F420224B0137A4DB2402C5AC2
:205010005C01CC0ACD093C520D63113C5F537F92D72B023C92535E243A5209632993C82B1B
:2050300003203A900144C42B3C4000442D43A1000600191610012A1440181A425C01401881
:20505000B240805A5C018F00B4559F00C05513248900C6558800D6550C3C0C097F4C5F06B0
:2050700000185F4FB455A90004000D094F13A9000400D908F2237AC23AD0085A4018824ABD
:205090005C018F0000009F00000009248A000000033C6A13AA0004009A000000FA2328165F
:2050B00010011A147A4C243CAC0001000E930D243F9000010A2C29434F4F8F107B4C0FDB9C
:2050D0001983FA23023C2F9202287B4C013CCB0A1F833F930D244B4BAD000100CD4BFFFF06
:2050F0001F833F93F923043CAD000100CD4FFFFF7F4C0F9AF9237F4C0F93E5237F4C8F1099
:205110006B4C0F5BD12319161001B240805A5C0132C20343B24000A544010E430D430D93AA
:205130001A203E90A200172CCF0D0F184F5F00184FDE08184F5FAF010000B24002A5400124
:20515000CF43000092B34401FD231E530D6303203E90A200E92BB24010A54401034332D2C5
:205170000343B0137C53B0138854B2402C5A5C011001D2433124C243332482932A24032076
:20519000829328242424D243302482932A2404381220929328240F2CC24332241E42282469
:2051B0001F422A243EE33FE31E530F63824E2C24824F2E24083CD2433224924228242C24A8
:2051D00092422A242E240018C2432824043CC2433124C24330241001F2D030004A0292C34B
:2051F0006C0192426C016C01A2C36E01A2B36E01FB2332D0400082436001B24050006201C1
:20521000B2406E11640132C040001E143D4041D10E431D830E73FD230D93FB231D16003CF6
:20523000B2F0F4FF6E01A2C30201A2B30201F823B2D0330068011001B0136254D2C302023E
:205250001E143D40BC063E402D001D830E73FD230D93FB231D16D2D30202B0138854023C6A
:20527000D2C30202D2931C24FD23C2431C24B2402C5A5C01E2B30002F327C2432724B013E2
:20529000F045F03F03435C020D6D5C020D6D5C020D6D5C020D6D5C020D6D5C020D6D5C02E6
:2052B0000D6D5C020D6D5C020D6D5C020D6D5C020D6D5C020D6D5C020D6D5C020D6D5C021E
:2052D0000D6D10010A14B1000600D293302403207A40F000013C4A434B43D29332240124A0
:2052F0005B43C14A000091422C240200C14B0400B0137A4DC2433124A10006000A16100104
:20531000CF0D0F184F5F00184FDC2D93062803203C90004402284C430D3C4E437E92092C90
:205330003D40FF007D9F02244C43043C5E537E92F72B5C431001CF0D0F184F5F00184FDC49
:205350005C4F03000D43B013B2525E4F02000CDEB013B2525E4F01000CDEB013B2526F4FFB
:205370000CDF824C0024824D0224100182435E240018C24300240018C24304240018C24350
:2053900008240018C24312240018C2431824C2431024C2431624C2430C24C2430D24100131
:2053B000C2430402C2430502C2432402C2432502C2434402C2434502C24364028243240381
:2053D000B0137655D2D30402F2D205021001B2435203B24020014003B24000805403B2404D
:2053F00010004403B2439203B24020028003B24060EA9403B24010008403100132C203437E
:20541000B24000A54401B24040A540018F010000CF430000B24000A54001B24010A5440122
:20543000034332D203431001F24018002A02D2D3C005F2D08000C005F240E200C605E242D1
:20545000C705D242C805C805D2C3C005D2D3DC051001B240805A5C0132C20343B013E85172
:20547000B013B053B013F254B013DE53B0133854034332D2034310018E0100003F40FF005C
:205490006F9E0720B0130C543C421D43B0136C55043CB013A44FB0136C5510011F4C01004C
:2054B0001E4C03000E9302200F930924AD000100CD43FFFF1F830E73F9230F93F723100115
:2054D000D2430E24F2D20302E2C31902E2C31D02E2D31B02E2C21902E2C21D02E2D21B0203
:2054F0001001E2D34B02B24010040007D2431007B240000202071001600C5A24C24D6324C2
:20551000C2436224D2433B24E2D3DC051001CF0C0E930624AF000100FF4DFFFF1E83FA2377
:205530001001CF0CCC0DCD0FAD0005001E4F010080001E55C2430E24F2C20302E2C31B02F5
:20555000E2C21B02100192430C07B2D0030000071001C24334241C4236241001824C52247A
:20557000824D54241001D2D30202F2C2030210011E438000B2505C423F241001C24C1E240B
:165590001001C24C1F241001C24C202410011C4310010343FF3F3B
:2055A6000102021D0001021F000200000000AC54000080550000325500000000260000001D
:1055C600A655000000240000C05500003E2400003F
:02FFD200E84500
:02FFD400924455
:02FFD600E845FC
:02FFD800E845FA
:02FFDA00E845F8
:02FFDC00E845F6
:02FFDE001C45C0
:02FFE000D64504
:02FFE200EE45EA
:02FFE400E845EE
:02FFE600E845EC
:02FFE80078455A
:02FFEA00E845E8
:02FFEC00A0452E
:02FFEE00E845E4
:02FFF0000044CB
:02FFF200E845E0
:02FFF400E845DE
:02FFF600E845DC
:02FFF800E845DA
:02FFFA00E845D8
:02FFFC00E845D6
:02FFFE00BC4500
:00000001FF
