:204400000F147F3CE2B2010219209283262482732824D293362407203F40FEFF1F52500328
:20442000824F56030B3CD24336243F40FEFF1F525003824F5603B24010004603E2C31D0223
:204440006A3CE2B3010219209253262482632824D293362407203F40FEFF1F525003824F8E
:2044600056030B3CD24336243F40FEFF1F525003824F5603B24010004603E2C21D024B3C2E
:20448000C2930102193892832A2482732C24D293362407203F40FEFF1F525003824F56037B
:2044A0000B3CD24336243F40FEFF1F525003824F5603B24010004603F2F0BF001D022B3C6A
:2044C000F2B040000102192092532A2482632C24D293362407203F40FEFF1F525003824F5F
:2044E00056030B3CD24336243F40FEFF1F525003824F5603B24010004603F2F07F001D0278
:204500000A3C1F421E022F827D272F839A273F82B7272F83D527B2402C5A5C010F160013B2
:204520001F14413C5F423C24DF42CC054024C2933C240C20F2907F0040240820C2933E244F
:204540000520D2433E24D2533C24363CD2933C240A28D2933E240720C2433C24C2433E2417
:20456000D2433D24293CD2933E240320D2533C24233CC2433C24C2433E241E3C2F006024B9
:204580007E4F600F6024C24ECE055E426A24CF0E5F53C24F6A245E926B240E28E2C3DC05E1
:2045A000C2433F24093C1F42DE050F9305242F83B9272F83E327003C1E1600130F140A3C05
:2045C000924220073A24D2433824A2C3000782430C07313C1F420E073F9013001B343F90EA
:2045E000120029243F9009000B343F9224240F9322242F8320242F831E242F83E1271B3C49
:204600003F800A0018242F8316242F8314242F831224113C3F8014000E242F830C242F83F1
:204620000A242F8308242F8306242F8304242F8302242F8300240F1600134F14F2B21C02AD
:204640000924B1C0F00014005C43B013B458F2C21C02143CF2B010001C020A24B1C0F000C9
:2046600014005C43B013C258F2F0EF001C02063C32C20343B2402F5A5C01FF3F4B160013B5
:204680004F140C3CD2433724B250008054030F3CB0134251B2F0EFFF4603093C1F426E0395
:2046A0002F83F0272F83F4273F80060000244B1600130F14063CD2431A24B25060EA94036C
:2046C000093C1F42AE032F83F6272F8303243F80060000240F16001381000044B013F258E8
:1A46E0000C930224B01308520C43B013B255B013F65832D01000FD3F001353
:2046FA00B1000600D29337240620C24337249253002482630224D2933D245D20C2433D24E6
:20471A00B013EC58C24C2424D29324244A20D2431F24F140FA000000B1430200F14304005A
:20473A001C4254241D4256241E4200241F420224B0137C4D824C6624A2936624022480005C
:20475A00764DB282542482735624F140FA000000B1430200F14304001C4254241D42562459
:20477A001E4200241F420224B0137C4D0C9302208000764DB282542482735624F140FA003E
:20479A000000B1430200F14304001C4254241D4256241E4200241F420224B0137C4D80000B
:2047BA00764DF2901000242402248000764DB0132A538000764DD2931F240620C2431F2440
:2047DA00B0136E4F8000764D5F4200023FF040005E421B240E9F022080003C4D3F40400074
:2047FA005FF20002C24F1B24C2430E24F2C20302F2F0EF000302E2C31B02E2C21B02F2F0D1
:20481A00BF001B02F2F07F001B02B0134251B0132654924200240424924202240624D24338
:20483A000E24F140F9000000B1430200F14304001C4254241D4256241E4200241F4202241A
:20485A00B0137C4D824C6624A2936624022480003C4DB252542482635624F140F900000067
:20487A00B1430200F14304001C4254241D4256241E4200241F420224B0137C4D0C930220E9
:20489A0080003C4DB0137A50824C5424824D562480003C4D924320248000764D3E420F43A2
:2048BA001E5210241F6212241F92022404283D201E9200243A2CD2930F243720C2430F24C2
:2048DA00F140F2000000B14000F10200F14304001C4254241D4256241E4200241F420224C5
:2048FA00B0137C4D824C6624A29366241E20B252542482635624F140F2000000B14000F0DE
:20491A000200F14304001C4254241D4256241E4200241F420224B0137C4D0C930624B01371
:20493A007A50824C5424824D56243E420F431E5216241F6218241F92022404283D201E92BB
:20495A0000243A2CD29314243720C2431424F140F2000000B14001F10200F14304001C42E4
:20497A0054241D4256241E4200241F420224B0137C4D824C6624A29366241E20B252542464
:20499A0082635624F140F2000000B14001F00200F14304001C4254241D4256241E4200242C
:2049BA001F420224B0137C4D0C930624B0137A50824C5424824D5624A2432024CF3DF2B20C
:2049DA0000024D24924200240424924202240624924200241024924202241224C2930E2423
:2049FA000420D2430E24B0132654C2930F243720D2430F24F140F2000000B14000F00200C8
:204A1A00F14304001C4254241D4256241E4200241F420224B0137C4D824C6624A2936624E7
:204A3A001E20B252542482635624F140F2000000B14000F00200F14304001C4254241D42D0
:204A5A0056241E4200241F420224B0137C4D0C930624B0137A50824C5424824D5624B24054
:204A7A00030020247B3DF2B0100000024D2492420024042492420224062492420024162482
:204A9A00924202241824C2930E240420D2430E24B0132654C29314243720D2431424F14035
:204ABA00F2000000B14001F00200F14304001C4254241D4256241E4200241F420224B01351
:204ADA007C4D824C6624A29366241E20B252542482635624F140F2000000B14001F00200BC
:204AFA00F14304001C4254241D4256241E4200241F420224B0137C4D0C930624B0137A50C8
:204B1A00824C5424824D5624A2422024273D3E4080511F431E5208241F620A241F9202248D
:204B3A0004280E201E9200240B2CC2930C240820924200240824924202240A24D2430C24B8
:204B5A00D2930C240420B24005002024073DD2930E240420B24007002024003DB2400900D3
:204B7A002024FC3CD2930E240820B013D058B24006002024C2430C24F13CB2400900202418
:204B9A00ED3CD2933824EA20B013DC58824C2224B2909F0C2224362CD2430D24F140FB00F5
:204BBA000000914222240200F14304001C4254241D4256241E4200241F420224B0137C4D42
:204BDA00A29366245220B252542482635624F140FB000000914222240200F14304001C42D2
:204BFA0054241D4256241E4200241F420224B0137C4D0C933A24B0137A50824C5424824D14
:204C1A005624333CF140F4000000914222240200F14304001C4254241D4256241E420024E6
:204C3A001F420224B0137C4DA29366241E20B252542482635624F140F40000009142222431
:204C5A000200F14304001C4254241D4256241E4200241F420224B0137C4D0C930624B0132E
:204C7A007A50824C5424824D5624D2930E240420B24007002024723CB240090020246E3C32
:204C9A00C293342422241C4254241D4256241E4200241F420224B013AE532C931620B25290
:204CBA005424826356241C4254241D4256241E4200241F420224B013AE532C930620B013DD
:204CDA007A50824C5424824D5624B2422024463C3E402C010F431E5204241F6206241F92B6
:204CFA000224042814201E920024112CC2430E24F2C20302F2F0EF000302E2C31B02E2C2D7
:204D1A001B02F2F0BF001B02F2F07F001B02B24009002024233C82432024203C8243202414
:204D3A001D3C1F4220243F900A00F82F5F060018504F4E4DAE480000B6480000D84900008F
:204D5A00804A0000284B00007E4B00009C4B00009A4C0000EA4C0000304D0000A10006000C
:204D7A001001B1000800814E0400814F0600814C0000814D02002C41B0135C555C93E62033
:204D9A000018D2410000582432C20343B24000A54401B24040A5400160015C240018E252F7
:204DBA005C242F005C247D4F600F5C242E005824CF0EAF000100600F5824CE4D00002F0083
:204DDA005C247D4F600F5C242E005824CF0EAF000100600F5824CE4D00002F005C247D4FC6
:204DFA00600F5C242E005824CF0EAF000100600F5824CE4D00002F005C247D4F600F5C2403
:204E1A002E005824CF0EAF000100600F5824CE4D00002E005824CF0EAF000100600F582419
:204E3A00DE410C00000060015C240018F2500E005C242F005C247D4F600F5C242E00582450
:204E5A00CF0EAF000100600F5824CE4D00002F005C247D4F600F5C242E005824CF0EAF0005
:204E7A000100600F5824CE4D00002E005824CF0EAF000100600F5824DE4110000000B240CE
:204E9A0000A54001B24010A54401034332D203430018D2410000582460015C240018E252C2
:204EBA005C24C2436824E2926824132C2F005C247E4F600F5C242F0058247D4F600F5824BB
:204EDA004D9E02242C43433CD2536824E2926824ED2B2F0058247E4F600F58245E910C0092
:204EFA0002242C43343C60015C240018F2500E005C24C2436824E2936824132C2F005C244A
:204F1A007E4F600F5C242F0058247D4F600F58244D9E02242C431B3CD2536824E2936824D0
:204F3A00ED2B7E4F600F58245E91100002242C430E3CB1520000816302002C411D410200F3
:204F5A00B0134E58925364240C43013C1C43A10008001001B1000A000018C1430600B240ED
:204F7A00805A5C01F2407F004A24F2407F004B240018F140642400003F0100007E4F710F43
:204F9A000000C24E4C247E4F710F0000C24E4D248C004A247D400900B01384570D143D40AD
:204FBA00DCAB1D83FE230D16003CB142060091430800914304009291040064244B28001849
:204FDA00D141060000003F0100007E4F710F0000C24E4B247E4F710F0000C24E4C247E4FF9
:204FFA00710F0000C24E4D247E4F710F0000C24E4E247E4F710F0000C24E4F247E4F710FAA
:20501A000000C24E50247E4F710F0000C24E51247E4F710F0000C24E52248C004A247D4096
:20503A000900B0138457D2933F240320D2933F24FD270D143D403C1F1D83FE230D16003CBF
:20505A00B15206008163080091530400929104006424B52FB2402C5A5C01A1000A00100135
:20507A00B1001000B240805A5C01B142060091430800A193080005285120B19001440600F1
:20509A004D2C0018D14106000C00C1430A00F1920A00382C3E40FF005F410A0000185F5153
:2050BA000C006E9F0324925364242C3CF19007000A0023201C4106001D4108003C820D73E5
:2050DA00B0139A52F140F8000000B1430200F14304001C4106001D4108001E4200241F4202
:2050FA000224B0137C4DB2402C5A5C013C420D431C5106001D610800143CD1530A00F19247
:20511A000A00C82BB152060081630800A1930800B82B0420B19001440600B32B3C40004416
:20513A002D43A10010001001D2433424C2433624829328240320829326242624D2433224BF
:20515A00C2433324829328240D380320929326240928D2433524924226242E249242282472
:20517A0030240E3CC24335241E4226241F4228243EE33FE31E530F63824E2E24824F302455
:20519A000018C2432624323C82932C24032082932A242624D2433324C243322482932C24BF
:2051BA000D38032092932A240928D243352492422A242E2492422C2430240E3CC2433524C7
:2051DA001E422A241F422C243EE33FE31E530F63824E2E24824F30240018C2432A24063C3C
:2051FA00C2433424C2433224C243332410013A1440181A425C014018B240805A5C018F0001
:20521A0008599F001459262489001A598F002A59D90F2024CE090F194E100E4E0C4F0F1947
:20523A004F100C890D4F0D7EB0133656C80CC70D0C097F4C4F0E4F0500185F4F0859A90021
:20525A0004000D094F13A900040018830773F0230893EE237AC23AD0085A4018824A5C010E
:20527A008F0000009F00000009248A000000033C6A13AA0004009A000000FA2337161001B0
:20529A00B1000C00814C0000814D02000018D141000008003F0108005F4F0300710F0400EB
:2052BA001C4104001D410600B0136056814C0400814D06003F0108005F4F020081DF040095
:2052DA001C4104001D410600B0136056814C0400814D06003F0108005F4F010081DF040076
:2052FA001C4104001D410600B0136056814C0400814D06003F0108006F4F81DF0400924174
:20531A0004000024924106000224A1000C001001B10008000018C1430000B240805A5C0190
:20533A0032C20343B24000A544010018C1430000819302001F20B190A20000001B2C3F0162
:20535A00000008184F5FAF010000710F0400B24002A54001CF43000092B34401FD239153B7
:20537A00000081630200819302000420B190A2000000E52BB24010A54401034332D2034384
:20539A00B013F256B013BE56B2402C5A5C01A10008001001B1001000814E0A00814F0C000C
:2053BA00814C0600814D0800D29332240420F240F0006C24093CD29333240420F240F10051
:2053DA006C24023CC2436C24D29335240320C2436924023CD2436924D1426C240000914287
:2053FA002E240200D142692404001C4106001D4108001E410A001F410C00B0137C4D814CA4
:20541A000E00C2433424A10010001001F2B0400000021D20F2D0100003020D143D409C0F04
:20543A001D83FE230D16003CF2F07F001902F2F07F001D02F2D080001B02F2F0BF0019021B
:20545A00F2F0BF001D02F2D040001B02153CF2D203020D143D409C0F1D83FE230D16003CD0
:20547A00E2C21902E2C21D02E2D21B02E2C31902E2C31D02E2D31B0210011A147A4C243C04
:20549A00AC0001000E930D243F9000010A2C29434F4F8F107B4C0FDB1983FA23023C2F925B
:2054BA0002287B4C013CCB0A1F833F930D244B4BAD000100CD4BFFFF1F833F93F923043C00
:2054DA00AD000100CD4FFFFF7F4C0F9AF9237F4C0F93E5237F4C8F106B4C0F5BD123191637
:2054FA001001F2D030004A0292C36C0192426C016C01A2C36E01A2B36E01FB2332D04000DB
:20551A0082436001B24050006201B2406E11640132C040001E143D4041D10E431D830E736B
:20553A00FD230D93FB231D16003CB2F0F4FF6E01A2C30201A2B30201F823B2D03300680107
:20555A001001B1000A00814C0000814D02000018D14100000600A193020007280420B190CE
:20557A000044000002284C43143CC1430400F19204000E2C3F0106007E4F710F06007E9351
:20559A0002244C43063CD1530400F1920400F22B5C43A1000A001001B0130458D2C302021B
:2055BA001E143D40BC063E402D001D830E73FD230D93FB231D16D2D30202B013BE56B01340
:2055DA00A658D2931A24FD23C2431A24B2402C5A5C01E2B300020524C2432524B013FA46C7
:2055FA00F03FF2D010002302EC3F03435D015C005D015C005D015C005D015C005D015C0058
:20561A005D015C005D015C005D015C005D015C005D015C005D015C005D015C005D015C00A0
:20563A005D015C005D015C0010015C020D6D5C020D6D5C020D6D5C020D6D5C020D6D5C0235
:20565A000D6D5C020D6D5C020D6D5C020D6D5C020D6D5C020D6D5C020D6D5C020D6D5C0270
:20567A000D6D5C020D6D1001B10004008018F1400000000032C20343B24000A54401B24027
:20569A0040A540013F010000CF430000B24000A54001B24010A54401034332D20343A10083
:2056BA0004001001B10004008018F140000000003E40FF003F0100006E9F0524B0137A50BD
:2056DA00B0134E58063CB01382563C421D43B0134E58A10004001001824364240018C24303
:2056FA0000240018C24304240018C24308240018C24310240018C2431624C2430F24C243F9
:20571A001424C2430C24C2430D241001C2430402C2430502C2432402C2432502C243440202
:20573A00C2434502C243640282432403B0139658D2D30402F2D0180005021001B243520314
:20575A00B24020014003B24000805403B24010004403B2439203B24020028003B24060EA6A
:20577A009403B240100084031001B1000600C14D0400710C00000018D24100006024D241D6
:20579A0004006B24C2436A24D2433F24E2D3DC05A10006001001F24018002A02D2D3C00523
:2057BA00F2D08000C005F240E200C605E242C705D242C805C805D2C3C005D2D3DC0510015A
:2057DA001A14C90C0F9302200E930D240A430B43A9000100F94DFFFF1A530B630B9FF82BE5
:2057FA0002200A9EF52B19161001B240805A5C0132C20343B013FC54B0132657B013805814
:20581A00B0135657B013B057034332D2034310011F4C01001E4C03000E9302200F93092428
:20583A00AD000100CD43FFFF1F830E73F9230F93F7231001B1000400814C0000814D020034
:20585A00A2415424924102005624A10004001001CF0CCC0DCD0FAD0005001E4F01001F4FB0
:20587A0003008000DA57E2D34B02B24010040007D2431007B240000202071001D2D3020268
:20589A00F2C20302F2F0EF00030210013F4040005FF20002C24F1B241001F103C14C0000DA
:2058BA00E2411D24E1031001F103C14C0000E2411E24E103100192430C07B2D003000007A6
:2058DA001001C24338241C423A2410011E43800094545C42412410011C4310010343FF3F9E
:2058FA000102021B000102240002000000002A580000E65800006A58000000002D00000096
:10591A00FA58000000240000145900004024000036
:02FFD200F246F5
:02FFD4000044E7
:02FFD600F246F1
:02FFD800F246EF
:02FFDA00F246ED
:02FFDC00F246EB
:02FFDE003A46A1
:02FFE000B24627
:02FFE200F846DF
:02FFE400F246E3
:02FFE600F246E1
:02FFE800804651
:02FFEA00F246DD
:02FFEC00BC4512
:02FFEE00F246D9
:02FFF0002045AA
:02FFF200F246D5
:02FFF400F246D3
:02FFF600F246D1
:02FFF800F246CF
:02FFFA00F246CD
:02FFFC00F246CB
:02FFFE00D846E3
:00000001FF
